:100000000C9496020C94B3020C94B3020C94AF08B7
:100010000C94B3020C94B3020C94B3020C94B3028C
:100020000C94B3020C94B3020C94B3020C944103ED
:100030000C94B3020C94B3020C94B3020C94B3026C
:100040000C94B3020C94B3020C94B3020C94B3025C
:100050000C94B3020C94B3020C94B3020C94B3024C
:100060000C94B3020C94B3026E616E00696E66006C
:100070006364696E6F70737578585B656667454633
:100080004700616E006E66696E69747900CDCCCCF4
:100090003D0AD7233C17B7D13877CC2B329595E65C
:1000A000241FB14F0A000020410000C84200401C3C
:1000B0004620BCBE4CCA1B0E5AAEC59D74202020E3
:1000C0002020202020362D39202020202020200014
:1000D00020202020202020202020342C2020202000
:1000E0002020002020202020202020302D322C20F5
:1000F00020202020200053656C65637420612070EF
:10010000726F6772616D3A2000202020202020202D
:1001100020202020202020202020202020002050CF
:1001200072657373202A20746F2072657365742062
:1001300020200020202020202020202020202020DF
:1001400020202020202020002020454D45524745DA
:100150004E4359204D4F444520202020004241432A
:100160004B3A202A2C204E4558543A20230045581B
:1001700049543A202A2C205041555345202300420F
:1001800041434B3A202A20202020202020202020DC
:1001900020004241434B3A202A2C20444F4E453AFE
:1001A000202300455849543A202A2C204E455854C3
:1001B0003A202300494E56414C4944202D204D41C0
:1001C000583D38303A30300054696D65204C6566D2
:1001D000743A002020202050726F6772616D205A9F
:1001E00065726F20202020002A002020202020205F
:1001F00020202020202020202020202020200045FA
:100200006E7465722054696D653A2030303A303032
:10021000002020202050726F6772616D205A657235
:100220006F20202020002020202020204F46460044
:100230002020202020204F4E200044454C41593A98
:1002400020300044454C41593A20310020202020E4
:1002500020204F464600202020202020472000203C
:1002600020202D50726F6772616D204E696E652D72
:10027000202020002020202020204F464600202043
:10028000202020204F4E200044454C41593A203038
:100290000044454C41593A203100202020202020A4
:1002A0004F46460020202020202059002020202DCD
:1002B00050726F6772616D2045696768742D002008
:1002C00020202020204F4646002020202020204FA4
:1002D0004E200044454C41593A20300044454C41A1
:1002E000593A2031002020202020204F464600206F
:1002F000202020202052002020202D50726F677275
:10030000616D20536576656E2D0044454C41593A28
:100310002030004D696E733A20302C205365637392
:100320003A203520200044454C41593A2031004DB7
:10033000696E733A20302C20536563733A20302065
:10034000200020202020202047002020202D507237
:100350006F6772616D20536978202D0044454C41D0
:10036000593A2030004D696E733A20302C20536585
:1003700063733A203520200044454C41593A2031DE
:10038000004D696E733A20302C20536563733A2018
:100390003020200020202020202052002020202D4E
:1003A00050726F6772616D20466F75722D0030005C
:1003B00030003000300044454C41593A2031005360
:1003C0006563733A20203020202030002020202038
:1003D0002020205220202047002020202D50726F06
:1003E0006772616D2054776F2D003000300030004F
:1003F00030003000300044454C41593A2031005320
:100400006563733A202030202020302020203000E7
:10041000202020202020204720202059202020524A
:10042000002020202D50726F6772616D204F6E6525
:100430002D0000407A10F35A00A0724E18090010E7
:10044000A5D4E80000E87648170000E40B54020049
:1004500000CA9A3B000000E1F50500008096980074
:10046000000040420F000000A0860100000010279D
:1004700000000000E803000000006400000000002D
:100480000A00000000000100000000002C76D8885F
:10049000DC674F0823DFC1DFAE59E1B1B796E5E372
:1004A000E453C63AE651997696E8E6C28426EB898B
:1004B0008C9B62ED407C6FFCEFBC9C9F40F2BAA528
:1004C0006FA5F490055A2AF75C936B6CF9676DC1C0
:1004D0001BFCE0E40D47FEF520E6B500D0ED902EC4
:1004E0000300943577050080841E080000204E0A22
:1004F000000000C80C333333330F986E1283114160
:10050000EF8D2114893BE65516CFFEE6DB18D1842A
:100510004B381BF77C1D901DA4BBE4242032847251
:100520005E228100C9F124ECA1E53D2711241FBE04
:10053000CFEFD4E0DEBFCDBF11E0A0E0B1E0E2E458
:10054000F2E302C005900D92A834B107D9F711E08B
:10055000A8E4B1E001C01D92A536B107E1F70E9401
:100560007E0A0C941F190C94000087B1836087B930
:10057000259A87B1837C87B988B18C6388B988B1A3
:100580008C7F88B92D980895E0E8F0E09081808113
:10059000892780838DE0809381008FE398E3909397
:1005A000890080938800E4E8F0E020813181808137
:1005B0009181822793279183808382E080936F00CB
:1005C0007894089580914801089580914901089593
:1005D00080914801882311F090E006C08091490184
:1005E00090E0882309F491E0892F089590914801C3
:1005F000980F903518F490934801089580E5809302
:100600004801109249010895282F90914901809145
:1006100048018035E8F4322F390F3C33B8F0832F8E
:100620006CE30E944E159093490120914801832F5D
:100630000E944E15280F203518F420934801089584
:1006400080E5809348011092490108953093490153
:10065000089510924801109249010895809348012D
:10066000609349010E94C4020895E1E8F0E08081AE
:100670008A7F80830895E1E8F0E08081856080834F
:1006800008951F920F920FB60F9211248F938091AD
:100690004801882389F080914901882341F48CE343
:1006A0008093490180914801815080934801809155
:1006B0004901815080934901809148018823B1F418
:1006C00080914901882331F08091490181508093C4
:1006D00049010CC080914901882331F480916F0059
:1006E0008D7F80936F0002C0109249018F910F900F
:1006F0000FBE0F901F90189584B18C6184B985B19D
:100700008C6185B9089510924A01089581E0809323
:100710004A01089585B18C6185B90895982F80911B
:100720004A01882359F0923541F0993521F09734E8
:1007300029F42A9808952B9808952C9808952198C3
:10074000299AE8E6F0E0808181608083EBE6F0E0C2
:100750009081808189278083808182608083089551
:100760001F9380912D01893369F483E480932D01D7
:1007700080913D01882321F481E080933D0102C0F6
:1007800010923D0180912C01893321F185B18C615A
:1007900085B91092480111E0109349010E94C402EA
:1007A00010933D010E94420C8FE592E00E94920B53
:1007B0000E947F0B86E592E00E94920B0E947A0BCA
:1007C0008CE492E00E94920B0E94750B83E492E00D
:1007D0000E94920B80914801882321F58091490164
:1007E0008823A9F01FC00E947A0B80E392E00E9448
:1007F000920B87E40E948E0315C00E947A0B86E25A
:1008000092E00E94920B85B18C6185B90BC00E9469
:10081000750B8AE392E00E94920B80913D0181303A
:1008200061F7E1CF1F9108951F9380912D018833C7
:1008300069F483E480932D0180913E01882321F4A3
:1008400081E080933E0102C010923E0180912C0114
:10085000883321F185B18C6185B91092480111E08E
:10086000109349010E94C40210933E010E94420C61
:100870008CEA92E00E94920B0E947F0B84EA92E045
:100880000E94920B0E947A0B8AE992E00E94920BDE
:100890000E94750B81E992E00E94920B80914801C1
:1008A000882321F5809149018823A9F01FC00E9467
:1008B0007A0B8EE792E00E94920B89E50E948E03EC
:1008C00015C00E947A0B84E792E00E94920B85B1DA
:1008D0008C6185B90BC00E94750B88E892E00E947C
:1008E000920B80913E01813061F7E1CF1F91089515
:1008F0001F9380912D01873369F483E480932D0148
:1009000080913F01882321F481E080933F0102C060
:1009100010923F0180912C01873321F185B18C61C8
:1009200085B91092480111E0109349010E94C40258
:1009300010933F010E94420C87EF92E00E94920BBD
:100940000E947F0B8FEE92E00E94920B0E947A0B26
:1009500085EE92E00E94920B0E94750B8CED92E066
:100960000E94920B80914801882321F580914901D2
:100970008823A9F01FC00E947A0B89EC92E00E94A4
:10098000920B82E50E948E0315C00E947A0B8FEBBA
:1009900092E00E94920B85B18C6185B90BC00E94D8
:1009A000750B83ED92E00E94920B80913F018130A4
:1009B00061F7E1CF1F9108951F9380912D01863338
:1009C00099F483E480932D0180914B01882361F495
:1009D00080914801882329F480914901882309F4F2
:1009E00086C085E00E94040380912C01863321F1AA
:1009F00085B18C6185B91092480111E010934901CD
:100A00000E94C40210934B010E94420C8AE493E0BE
:100A10000E94920B0E947F0B82E493E00E94920B53
:100A20000E947A0B8FE293E00E94920B0E94750B5A
:100A300086E293E00E94920B809148018823F9F4AA
:100A400080914901882309F456C019C010924B01C6
:100A500087E40E948E031092480185E0809349014B
:100A60000E94C4020E947A0B83E193E00E94920BE1
:100A70000E94750B8AE093E00E94920B2FC0809138
:100A80004B01882359F50E947A0B2091480130913F
:100A900049018DB79EB708970FB6F8949EBF0FBE59
:100AA0008DBFEDB7FEB731968EE291E0ADB7BEB720
:100AB00012969C938E93119780E091E093838283AA
:100AC00024831582368317820E943C178DB79EB708
:100AD00008960FB6F8949EBF0FBE8DBF8091480157
:100AE000882391F480914901882359F00DC081E059
:100AF00080934B0179CF80914B01813009F0BFCFBA
:100B0000A5CF85B18C6185B91F9108951F93809100
:100B10002D01843399F483E480932D0180914C015D
:100B2000882361F480914801882329F48091490148
:100B3000882309F486C085E00E94040380912C017B
:100B4000843321F185B18C6185B91092480111E09F
:100B5000109349010E94C40210934C010E94420C60
:100B60008CE993E00E94920B0E947F0B84E993E052
:100B70000E94920B0E947A0B81E893E00E94920BF4
:100B80000E94750B88E793E00E94920B80914801C8
:100B90008823F9F480914901882309F456C019C0CB
:100BA00010924C0182E50E948E031092480185E06C
:100BB000809349010E94C4020E947A0B85E693E06B
:100BC0000E94920B0E94750B8CE593E00E94920BA1
:100BD0002FC080914C01882359F50E947A0B2091F7
:100BE0004801309149018DB79EB708970FB6F89428
:100BF0009EBF0FBE8DBFEDB7FEB731968EE291E07E
:100C0000ADB7BEB712969C938E93119780E091E09A
:100C10009383828324831582368317820E943C1734
:100C20008DB79EB708960FB6F8949EBF0FBE8DBFC6
:100C300080914801882391F480914901882359F0DB
:100C40000DC081E080934C0179CF80914C018130BF
:100C500009F0BFCFA5CF85B18C6185B91F910895EB
:100C60000F931F93CF93DF9380912D01823329F44B
:100C700083E480932C0180932D0180912C01823399
:100C800029F185B18C6185B982E38093400110928E
:100C9000480181E0809349010E94C4020E94420CF5
:100CA00089ED93E00E94920B0E947F0B8CEC93E005
:100CB0000E94920B0E947A0B8FEB93E00E94920BA2
:100CC0000E94750B86EB93E00E94920B8091480185
:100CD000882309F055C080914901882309F49BC0FD
:100CE0004FC081E38093400185B18C6185B910923A
:100CF000480181E0809349010E94C40282E067E0DC
:100D00000E94620B84EB93E024C083E067E00E94C2
:100D1000620B82EB93E00E94920B87E48093400188
:100D20000E948E031092480183E026C082E38093E4
:100D3000400185B18C6185B91092480182E08093B1
:100D400049010E94C40282E06BE00E94620B80EBCA
:100D500093E00E94920B14C083E067E00E94620B54
:100D60008EEA93E00E94920B82E5809340010E94FC
:100D70008E031092480184E0809349010E94C402CE
:100D800080914001873441F0CEE2D1E006E111E0EC
:100D90008235E1F482E01BC082E06BE00E94620BCE
:100DA0002091490100D000D000D0EDB7FEB73196B8
:100DB0008EE291E0ADB7BEB712969C938E931197D9
:100DC00086E191E093838283248315C083E067E00A
:100DD0000E94620B8091490100D000D000D0EDB795
:100DE000FEB73196ADB7BEB71296DC93CE9311978E
:100DF00013830283848315820E943C178DB79EB7AC
:100E000006960FB6F8949EBF0FBE8DBFDF91CF91AF
:100E10001F910F91089580914001823309F49CCF76
:100E2000833324F4813309F0ABCF6FCF873409F4D7
:100E30007DCF823509F0A4CF54CF0F931F93CF936A
:100E4000DF9380912D01813329F483E480932C0179
:100E500080932D0180912C01813329F185B18C6122
:100E600085B983E3809341011092480181E080932A
:100E700049010E94C4020E94420C81E294E00E9457
:100E8000920B0E947F0B80E194E00E94920B0E94E3
:100E90007A0B8FEF93E00E94920B0E94750B86EF06
:100EA00093E00E94920B80914801882309F07AC058
:100EB00080914901882309F4C5C074C081E38093FF
:100EC000410185B18C6185B91092480181E0809320
:100ED00049010E94C40282E067E00E94620B84EF35
:100EE00093E024C083E067E00E94620B82EF93E00E
:100EF0000E94920B89E5809341010E948E0310921B
:100F0000480182E04BC082E38093410185B18C614E
:100F100085B91092480181E0809349010E94C40282
:100F200082E06BE00E94620B80EF93E00E94920BE4
:100F300039C083E067E00E94620B8EEE93E00E946E
:100F4000920B82E5809341010E948E03109248012A
:100F500083E024C083E38093410185B18C6185B92E
:100F60001092480181E0809349010E94C40282E00E
:100F70006FE00E94620B8CEE93E0D8CF83E067E0D5
:100F80000E94620B8AEE93E00E94920B87E48093AA
:100F900041010E948E031092480185E0809349012F
:100FA0000E94C40280914101823569F0893541F087
:100FB000CEE2D1E006E111E08734F9F482E01EC010
:100FC00082E06BE002C082E06FE00E94620B209141
:100FD000490100D000D000D0EDB7FEB731968EE2C7
:100FE00091E0ADB7BEB712969C938E93119786E1B0
:100FF00091E093838283248315C083E067E00E949D
:10100000620B8091490100D000D000D0EDB7FEB74F
:101010003196ADB7BEB71296DC93CE93119713837A
:101020000283848315820E943C178DB79EB7069673
:101030000FB6F8949EBF0FBE8DBFDF91CF911F9169
:101040000F91089580914101833309F497CF843340
:101050003CF4813309F446CF823309F0A3CF69CF42
:10106000823509F477CF893509F44DCF873409F0FB
:1010700099CF24CF1F93182F88B1836088B92D98FA
:101080008AE090E00E94080B86B1869586958F7065
:101090008B3061F08C3018F4873079F509C08D30D1
:1010A00009F446C08E3049F581E345C087E343C06B
:1010B0008AE241C080E33FC0409A2D9A41988AE07D
:1010C00090E00E94080B86B1869586958F708B30D4
:1010D00061F08C3018F4873069F409C08D3019F054
:1010E0008E3041F423C086E326C089E324C083E226
:1010F00022C012E3812F1F910895419A2D9A4098A2
:101100008AE090E00E94080B86B1869586958F70E4
:101110008B3051F08C3018F4873071F6CBCF8D3096
:1011200049F08E3049F6E5CF88E305C083E303C07C
:1011300084E301C085E3182FDDCF88B18C7F88B9A7
:101140002D988AE090E00E94080B86B186958695DE
:1011500090E08F708F3009F091E0892F08951F92F1
:101160000F920FB60F9211242F933F934F935F93DB
:101170006F937F938F939F93AF93BF93EF93FF935F
:1011800085B18C6185B910924A01D89883E4809327
:101190003C0180913C0180932C0180913C01809323
:1011A0002D0110924801109249010E94840B88E49D
:1011B00091E00E94920B0E947F0B83E391E00E94DA
:1011C000920B0E947A0B8EE191E00E94920B0E949A
:1011D000750B89E091E00E94920B0AC00E949D0865
:1011E000882331F080913C010E943A0880933C01B1
:1011F00080913C018A3291F7FF91EF91BF91AF91BD
:101200009F918F917F916F915F914F913F912F911E
:101210000F900FBE0F901F9018952F923F924F92F4
:101220005F926F927F928F929F92AF92BF92CF9276
:10123000DF92EF92FF920F931F93DF93CF93CDB77F
:10124000DEB729970FB6F894DEBF0FBECDBF80E39F
:101250008A838B838C838D838CE08E838DE08F8358
:101260008FE0888780E1898719820E94420C81E1A2
:1012700092E00E94920B0E947A0B8FEF91E00E9405
:10128000920BCC2473E4D72E6EE2462E61E0562EEC
:1012900059E1252E51E0352EAA24A39446E0642E70
:1012A000712C6C0E7D1E32E0832E912C8C0E9D1EB7
:1012B00007C10E949D08882341F08D2D0E943A08A5
:1012C000D82E88EC90E00E941A0B23E02C15A8F190
:1012D0000E947F0B8AEE91E00E94920B0C2D10E091
:1012E000F301E00FF11FB08081E06B2D0E94620BD3
:1012F00088EE91E00E94920BED2CFF24E7FCF09425
:10130000C701C0970A9770F482E06B2D0E94620BB0
:10131000C7016EE271E00E945017080D191DD80137
:10132000DC92AFC0BAE2DB1611F4CA949AC0E3E2D1
:10133000DE1609F0A6C0C39494C0F4E0CF1609F0FD
:1013400043C03B8130518A812AE08202C0011124CE
:10135000380F2D8120518C814AE08402C001112474
:10136000280F303510F42C3338F0303511F080E090
:1013700004C080E0222309F481E09AE2D91619F42E
:1013800023E0C22E6EC08823C1F030934801209321
:1013900049010E94C40282E50E948E030E94420C11
:1013A00083ED91E00E94920B0E947F0B88EC91E00C
:1013B0000E94920B95E0C92E64C00E947F0B84EBC3
:1013C00091E00E94920B5DC0A5E0CA1609F050C0E2
:1013D0000E947A0B8091480190914901EDB7FEB7C8
:1013E00038970FB6F894FEBF0FBEEDBF3196ADB77C
:1013F000BEB712965C924E921197338222828483FA
:101400001582968317820E943C1780914801EDB7A0
:10141000FEB738960FB6F894FEBF0FBEEDBF882317
:1014200021F480914901882351F1F3E2DF16E1F4C0
:101430008981882351F4809181008A7F8093810083
:1014400085B18C6185B9A9820CC08981813049F44C
:101450008091810085608093810082E50E948E03E7
:10146000198283E4D82E0DC02AE2D21651F407C0A7
:1014700085B18C6185B933E430932C0102C0CC2452
:10148000CA940E94750BCC2019F483EA91E016C02F
:1014900043E0C41619F482E991E010C084E0C81654
:1014A00019F48FE791E00AC095E0C91619F48EE6A9
:1014B00091E004C00E94750B8DE591E00E94920BB3
:1014C00080912C01833409F0F4CE29960FB6F8945C
:1014D000DEBF0FBECDBFCF91DF911F910F91FF9067
:1014E000EF90DF90CF90BF90AF909F908F907F90C4
:1014F0006F905F904F903F902F900895FF920F93C1
:101500001F930E94520C0E94390C84B18C6184B9E3
:1015100085B18C6185B90E94B5020E949F038091BC
:10152000680081608093680078940E94420CFF24D8
:10153000F39413E409E4F0924A010E949D08882381
:1015400071F080913C010E943A0880933C018091A7
:101550002C0180932D0188EC90E00E941A0B809161
:101560003C018433D9F085333CF4813389F08233F4
:1015700091F0803379F525C08733B1F088331CF4BE
:10158000863341F50EC0883391F0893319F512C0C6
:101590000E941D0711C00E9430060EC00E948605E1
:1015A0000BC00E94DC0408C00E94780405C00E94A1
:1015B000140402C00E94B00380913C0180932C016E
:1015C000BACF00932C010E940D0910932C011093A7
:1015D0003C01B1CF10932C0185B18C6185B90E947B
:1015E000840B86EF90E00E94920B0E947F0B83EEAB
:1015F00090E00E94920B0E947A0B80ED90E00E9496
:10160000920B0E94750B8DEB90E00E94920B93CF92
:1016100020E030E00BC000000000000000000000EF
:1016200000000000000000002F5F3F4F281739071F
:1016300090F3089540E050E013C020E030E0000057
:10164000000000000000000000000000000000009A
:101650002F5F3F4F63E0283E360789F74F5F5F4FAC
:101660004817590750F308955F9A08955F980895B1
:101670009BB1937C9BB92BB1992787FD90958F7077
:101680009070880F991F880F991F282B2BB95E9A8D
:1016900081E090E00E94080B5E9881E090E00E945B
:1016A000080B08951F93182F82958F700E94380B96
:1016B000812F8F700E94380B80E590E00E94080B0C
:1016C0001F9108955F98823041F0833041F081305E
:1016D00011F480E405C080E003C084E101C084E52A
:1016E000860F80680E94520B089583E060E00E949C
:1016F000620B089582E060E00E94620B089581E031
:1017000060E00E94620B089580E060E00E94620B3E
:1017100008955F9A0E94520B08950E94890B80E001
:1017200090E00895CF93DF93EC0105C02196F90175
:1017300084910E94890B9E01FE0184918823B1F758
:10174000DF91CF910895CF92DF92EF92FF920F93A6
:101750001F93CF93DF93EC0197FF06C08DE20E94A9
:10176000890BD095C195DF4F40E000E117E2EE24F0
:10177000FF24DC2ECD2ECE01B8010E945A15CB01DC
:101780006115710529F4442319F40130110551F450
:10179000805D0E94890B8D2D9C2DB8010E945A15E9
:1017A000EC0141E00436110549F4442319F480E3C7
:1017B0000E94890B8EE20E94890B41E0C8016AE019
:1017C00070E00E945A158B010894E11CF11C85E021
:1017D000E816F10471F6DF91CF911F910F91FF9000
:1017E000EF90DF90CF900895CF92DF92EF92FF922B
:1017F0000F931F93CF93DF93EC0197FF06C08DE209
:101800000E94890BD095C195DF4F40E000E117E2BF
:10181000EE24FF24DC2ECD2ECE01B8010E945A15F5
:10182000CB016115710529F4442319F40130110528
:1018300051F4805D0E94890B8D2D9C2DB8010E9472
:101840005A15EC0141E0C8016AE070E00E945A15A7
:101850008B010894E11CF11C85E0E816F104D1F637
:10186000DF91CF911F910F91FF90EF90DF90CF907C
:1018700008955F9882E00E94520B82E390E00E94FC
:101880001A0B08955F9881E00E94520B82E390E06A
:101890000E941A0B82E00E94520B82E390E00E94A9
:1018A0001A0B08958AB18C6F8AB984E690E00E9481
:1018B0001A0B5F9883E00E94380B86E090E00E944C
:1018C0001A0B83E00E94380B8AEF90E00E94080B0D
:1018D00083E00E94380B8AEF90E00E94080B82E0C0
:1018E0000E94380B88E20E94520B8CE00E94520B3F
:1018F00081E00E94520B85E090E00E941A0B8CE080
:101900000E94520B86E00E94520B84E10E94520B0F
:101910000E94420C0895982F8091C00085FFFCCF53
:101920009093C60008958091C000807808958091BA
:10193000C00087FFFCCF8091C6000895982F80914A
:10194000C00085FFFCCF9093C60080E090E0089532
:101950008091C00087FFFCCF2091C600332727FD70
:101960003095C90108951092C50087E08093C400A6
:1019700088E18093C10086E08093C2008EE99CE0FC
:1019800068EA7CE00E94AE160895A1E1B0E0EBECBD
:10199000FCE00C946E153C017F876E876A01FC01A8
:1019A00017821682838181FD03C06FEF7FEF6FC3C3
:1019B0009E012F5F3F4F398B288BF3012381EE85EA
:1019C000FF8523FD859123FF8191FF87EE87882383
:1019D00009F45AC3853251F4EE85FF8523FD8591C4
:1019E00023FF8191FF87EE87853229F490E0B301D0
:1019F0000E945017E2CF982F10E0882499241032CB
:101A0000B0F49B3269F09C3228F4903251F093325A
:101A100071F40BC09D3239F0903349F4116028C045
:101A20001260146025C0186023C0106121C017FD2A
:101A30002AC0892F80538A3078F416FF06C0FAE056
:101A40009F9E902C1124980E13C03AE0839E802C08
:101A50001124880E10620CC09E3221F416FD14C3AE
:101A6000106406C09C3611F4106802C0983659F410
:101A7000EE85FF8523FD959123FF9191FF87EE87EA
:101A8000992309F0BCCF892F8554833020F4812F0E
:101A90008061905E07C0892F8556833008F09FC112
:101AA000812F8F7E86FD02C076E0972E6FE3F62EA3
:101AB000F822953619F4F0E4FF2A07C0963619F497
:101AC00020E8F22A02C091109A94F7FE0AC03BE384
:101AD000391518F45CE3B52E02C0B92CB39427E095
:101AE00009C047E0491520F4BB2447E0942EF7CF06
:101AF000292DBB24C60104969D878C87F601608141
:101B0000718182819381AE014F5F5F4F0B2D0E94E7
:101B1000A5156C010981202E332400FF04C003FDAC
:101B200002C01DE209C0F1FE02C01BE205C0F2FCCA
:101B300002C010E001C010E2C1018C709070892BCE
:101B4000B9F1112311F483E001C084E0881510F08D
:101B500088240AC0881AF3FC07C080E290E0B30131
:101B60000E9450178A94C9F7112329F0812F90E021
:101B7000B3010E94501723FE03C008E610E00EC018
:101B80000CE610E00BC0E114F10409F0805290E083
:101B9000B3010E9450170F5F1F4F05C0EF2CFF24A9
:101BA000F0E1EF22FF24F8018491882361F714C14A
:101BB000F7FE12C0BC0C24FE04C08A81813309F4F4
:101BC000BA941B141CF0BB24B3942DC0F8E0FB1591
:101BD00050F538E0B32E27C0F6FC25C0892D90E0E3
:101BE0008C159D054CF02CEFC2162FEFD20624F079
:101BF00030E8F32A01C09A94992049F0E2E0F0E03D
:101C0000EC0FFD1FE90DF11D80818033A1F3F7FE7C
:101C10000AC0B92CB394892D90E0C816D90614F0E7
:101C2000992401C09C18F7FC03C025E030E009C0EE
:101C30001C141D041CF021E030E003C096012F5F4E
:101C40003F4F112311F02F5F3F4F992029F0892D2D
:101C500090E00196280F391F882D90E0281739074A
:101C600014F0882401C0821A4F2C5524C2018970B7
:101C70009070892B39F008C080E290E0B3010E9497
:101C800050178A948820C1F7112329F0812F90E002
:101C9000B3010E94501743FE07C008C080E390E0E4
:101CA000B3010E9450178A948820C1F7F7FE46C0FE
:101CB0008601D7FE02C000E010E076010894E11C26
:101CC000F11CE01AF10A41E050E04C0F5D1FE40EF8
:101CD000F51E26014B185108892D90E0AA24BB243B
:101CE000A81AB90A5FEF0F3F150729F48EE290E0BA
:101CF000B3010E945017C016D10634F040165106A9
:101D00001CF4F701808101C080E301501040089469
:101D1000E11CF11C0A151B052CF090E0B3010E9498
:101D20005017E0CF0C151D0539F49A81963318F43D
:101D3000953311F424FE81E390E04BC08A81813316
:101D400009F00F7E90E0B3010E9450179920A1F096
:101D50008EE290E0B3010E94501712E0E1E0F0E063
:101D6000EC0FFD1FE10FF11D1F5F808190E0B301BB
:101D70000E9450179A9491F744FC03C085E690E0C6
:101D800002C085E490E0B3010E945017D7FC05C063
:101D9000C114D10441F404FF06C0D094C194D10809
:101DA000D3948DE201C08BE290E0B3010E94501702
:101DB00080E305C08F5F26EF3FEFC20ED31E3AE0EF
:101DC000C316D104BCF790E0B3010E945017C601BE
:101DD000C096B3010E945017CC84DD8452C1933663
:101DE00031F0933799F0933509F059C023C0F601CB
:101DF000808189835E010894A11CB11C22E030E03F
:101E0000C20ED31E21E0E22EF12C12C0F601A080FA
:101E1000B18016FD03C06FEF7FEF02C0692D70E047
:101E200022E030E0C20ED31EC5010E94A3167C0141
:101E30001F7713C0F601A080B18016FD03C06FEFBD
:101E40007FEF02C0692D70E022E030E0C20ED31EA9
:101E5000C5010E9498167C01106813FF07C01BC0C3
:101E600080E290E0B3010E9450178A94882D90E0A0
:101E7000E816F906A8F30FC0F50117FD859117FFC5
:101E800081915F0190E0B3010E94501781108A9404
:101E90000894E108F108E114F10471F7F2C09436F6
:101EA00011F0993689F517FF08C0F60120813181BC
:101EB0004281538184E090E00AC0F60180819181E3
:101EC0009C01442737FD4095542F82E090E0C80ED6
:101ED000D91E9FE6F92EF12257FF09C05095409573
:101EE000309521953F4F4F4F5F4F90E8F92ACA0137
:101EF000B901AE014F5F5F4F2AE030E00E949617B4
:101F0000E82EE889EE1A41C0953721F41F7E2AE0B9
:101F100030E01CC0197F9F3661F0903720F498356F
:101F200009F0B2C00FC0903739F0983709F0ACC053
:101F300004C028E030E00AC0106114FD146020E104
:101F400030E004C014FD166020E132E017FF08C045
:101F5000F601608171818281938144E050E008C084
:101F6000F60180819181BC0180E090E042E050E088
:101F7000C40ED51EAE014F5F5F4F0E949617E82E2C
:101F80005889E51A8FE7F82EF122F6FE0BC08EEF86
:101F9000F822E91438F4F4FE07C0F2FC05C09FEE05
:101FA000F92202C01E2D01C0192DF4FE0DC0FE0144
:101FB000EE0DF11D8081803319F4E9EEFE2208C098
:101FC0001F5FF2FE05C003C08F2D867809F01F5FEA
:101FD0000F2DF3FC14C0F0FE0FC0181510F09E2C4E
:101FE0000BC09E2C980C911A182D06C080E290E030
:101FF000B3010E9450171F5F1815C0F304C01815D5
:1020000010F4811A01C0882404FF0FC080E390E01F
:10201000B3010E94501702FF1DC001FD03C088E7F5
:1020200090E00EC088E590E00BC0802F867891F09C
:1020300001FF02C08BE201C080E2F7FC8DE290E07C
:10204000B3010E94501706C080E390E0B3010E94E4
:1020500050179A94E914C0F3EA94E1E0F0E0EC0F31
:10206000FD1FEE0DF11D808190E0B3010E9450171D
:10207000EE2091F706C080E290E0B3010E94501775
:102080008A948820C1F799CCF30166817781CB01CE
:102090006196E2E10C948A15FC0120FD08C023FD45
:1020A00005C022FF02C07383628351834083089579
:1020B000EF92FF920F931F9344FF02C033E011C0D1
:1020C00046FF02C034E00DC0DB01FC01AA0FBB1FBC
:1020D000EE1FFF1F1094D1F76A0F7B1F8E1F9F1FEB
:1020E00031E0660F771F881F991F3150D1F77B01B0
:1020F0008C01E20EF11C011D111DA8019701B70111
:10210000CA011F910F91FF90EF9008950F931F93B5
:10211000CF93DF938C01C8010E94FA16EC0197FD62
:1021200008C00E947D16892BB1F7CE01B8010E942C
:102130007C17CE01DF91CF911F910F9108958F925F
:102140009F92AF92BF92DF92EF92FF920F931F93F5
:10215000CF93DF935C01EB014A01122F0E94FA1624
:10216000AC018B3219F08D3251F41068219709F4CB
:102170006DC0C5010E94FA16AC0197FD67C06DEFF6
:10218000D62ED1228D2D807301F54033F1F42197A5
:1021900009F447C0C5010E94FA16AC0197FD41C081
:1021A00082E0D82A483711F0483559F480E4D82A1B
:1021B0002197B9F1C5010E94FA16AC0199232CF4BC
:1021C00030C0D6FC02C080E1D82AEE24FF2487016B
:1021D000242F2053283088F0D4FC09C02A3068F01E
:1021E000D6FE05C02F7D822F8151863028F0CA018E
:1021F000B5010E947C1712C02750C801B7014D2DB0
:102200000E9458107B018C0182E0D82A219761F04E
:10221000C5010E94FA16AC0197FFDACFD1FC04C0C9
:1022200015C0EE24FF248701D7FE08C01095009545
:10223000F094E094E11CF11C011D111DC401B801D2
:10224000A7012D2D0E944C1081E001C080E0DF919C
:10225000CF911F910F91FF90EF90DF90BF90AF90C3
:102260009F908F900895A0E2B0E0E9E3F1E10C9433
:1022700072155C016B018A017901FE01319680E2E1
:10228000DF011D928A95E9F770E030E060E040E000
:1022900050E03F01A1E0B0E0F5018381F70183FD4B
:1022A000259183FF21917F01222309F481C02E35DE
:1022B00019F44115510569F1872F90E084179507AE
:1022C00044F42D3551F12D3221F4332329F431E03A
:1022D00021C0332309F4622F322F832F86958695F0
:1022E0008695F301E80FF11D832F87704D0102C021
:1022F000880C991C8A95E2F72081282920833617BB
:1023000011F430E007C0361710F43F5FE6CF3150CC
:10231000E4CF71E04F5F5F4FBFCF332319F08E8161
:1023200080628E83772359F0FE0131969E012F5DE6
:102330003F4F808180958193E217F307D1F799246D
:1023400093943E010894611C711CC5010E94FA1609
:10235000AC0197FD25C0869586958695F301E80F1B
:10236000F11D808190E09A012770307002C0959530
:1023700087952A95E2F780FD05C0CA01B5010E9444
:102380007C170EC00115110519F0D8014D938D0170
:102390000894C108D1089924C114D104B1F602C02F
:1023A000992031F40115110529F0F801108202C0BD
:1023B000EE24FF24C701A096EEE00C948E152F9218
:1023C0003F925F926F927F928F929F92AF92BF9255
:1023D000CF92DF92EF92FF920F931F93CF93DF93F1
:1023E0003C017B011A010E94FA16EC018B3239F094
:1023F0008D3211F0552411C0B0E85B2E01C0552478
:102400000894E108F108E114F10409F418C1C301CA
:102410000E94FA16EC0197FD12C1CE010E948516AA
:102420008936910521F08E36910599F51DC005E894
:1024300010E01CC00894E108F108E114F10471F007
:10244000C3010E94FA16EC0197FD08C00E94851690
:10245000D81661F0CE01B3010E947C1720E0083845
:10246000120709F0ECC008C002E810E0F8010F5FA5
:102470001F4FD490DD20F1F60558104029F080E080
:1024800090E0A0E8BFE7CFC080E090E0A0ECBFE71D
:10249000CAC0CC24DD24882499245401AE014053C1
:1024A000242F4A3038F552E0552A852D90E0AC01B2
:1024B0004870507052FE06C0452B11F50894C11C9F
:1024C000D11C1EC0452B19F00894C108D108C501C4
:1024D000B40140E20E9458104B015C0188E9881663
:1024E00089E9980689E9A80689E1B80648F094E0E8
:1024F000592A06C04E3F81F453FC0EC0E8E05E2A24
:102500000894E108F108E114F10431F0C3010E94DC
:10251000FA16EC0197FFC2CF51FE91C0C53619F0F3
:10252000C53409F046C00894E108F108E114F1044B
:1025300009F485C0C3010E94FA16EC0197FD7FC023
:102540008B3221F08D3269F4F0E15F2A0894E108C2
:10255000F108E114F10409F472C0C3010E94FA16F3
:10256000EC01CE01C0970A9708F069C000E010E0C6
:10257000B801882777FD8095982FAE014053242F0E
:1025800040E20E9458108B010894E108F108E11420
:10259000F10439F0C3010E94FA16EC01C0970A97C2
:1025A00038F3B80154FE03C0709561957F4FC60E95
:1025B000D71EEF2831F0D7FD04C0CE01B3010E9431
:1025C0007C17C501B4010E945D14D7FE0DC0A1EABD
:1025D000EA2EA0E0FA2ED094C194D108D394C0E2A0
:1025E000D0E000E010E00EC0F9EBEF2EF0E0FF2E9F
:1025F000F6CFF70125913591459154910E949A1497
:10260000CC1ADD0ACC16DD06A0F7D695C7950F5F6C
:102610001F4F0630110529F0ECEFFFEFEE0EFF1E05
:10262000F1CFDC01CB0157FCB0582114310429F063
:10263000F10180839183A283B38381E001C080E0B4
:10264000DF91CF911F910F91FF90EF90DF90CF908E
:10265000BF90AF909F908F907F906F905F903F90D2
:102660002F900895A0E0B0E0E8E3F3E10C94711539
:102670004C015B013A01FC0117821682552404C10A
:10268000812F90E00E947D16892B21F0C4010E94C9
:102690008610FAC0153249F4F501F3FC6591F3FE9A
:1026A00061915F01653269F415E2C4010E94FA1676
:1026B00097FDF6C0181709F4E7C0B4010E947C1713
:1026C000F4C06A3219F0162F00E006C0F3FC159131
:1026D000F3FE11915F0101E0CC24DD240EC0026005
:1026E000B60180E090E040E20E9458106B01F501D5
:1026F000F3FC1591F3FE11915F01212F20532A3035
:1027000070F301FD04C0CC24CA94DC2C04C0C114B5
:10271000D10409F4CAC0183621F01C3699F4F50129
:102720000BC0F501F3FC6591F3FE6191683619F079
:102730005F01162F07C008600460F3FC1591F3FEDB
:1027400011915F01112309F4B0C080E790E0612F7F
:1027500070E00E948D16892B09F4A7C0802F00FF1E
:1027600003C0EE24FF2407C0F301E080F18022E0E3
:1027700030E0620E731E1E3651F4F401468157811B
:1027800060E070E0C701202F0E944C107DC013361E
:10279000B9F481FD03C081E0C82ED12CC4010E9490
:1027A000FA1697FD7DC0E114F10419F0F701819349
:1027B0007F010894C108D108C114D10479F762C01F
:1027C0001B3559F4C401B601A70195010E943311CC
:1027D0005C01009709F056C050C0C4010E948610E9
:1027E00097FD5EC01F36D1F1103738F41436A1F1D1
:1027F0001936A9F11835D1F52DC0133751F014371A
:1028000018F4103799F526C0153731F1183771F5DE
:1028100021C0C4010E94FA16EC0197FD15C00E9468
:102820007D16892B29F0CE01B4010E947C170CC0C3
:10283000E114F10419F0F701C1937F010894C10874
:10284000D108C114D10429F7E114F104D9F0F7013A
:10285000108218C0006403C0006201C00061C4019E
:10286000B601A701202F0E949F1005C0C401B60128
:10287000A7010E94DF11882329F4F401838180736A
:1028800079F413C000FF5394F401F380F501F3FCD5
:102890001591F3FE11915F01112309F0F1CE05C0EE
:1028A000552019F42FEF3FEF02C0252D30E0C9016C
:1028B000CDB7DEB7EFE00C948D15E89409C097FB17
:1028C0003EF490958095709561957F4F8F4F9F4F07
:1028D0009923A9F0F92F96E9BB279395F69587954B
:1028E00077956795B795F111F8CFFAF4BB0F11F40E
:1028F00060FF1BC06F5F7F4F8F4F9F4F16C08823B5
:1029000011F096E911C0772321F09EE8872F762FEA
:1029100005C0662371F096E8862F70E060E02AF02B
:102920009A95660F771F881FDAF7880F9695879517
:1029300097F908950BD078C069D028F06ED018F0C0
:10294000952309F05AC05FC01124A2C07ED0A0F325
:10295000959FD1F3950F50E0551F629FF001729F34
:10296000BB27F00DB11D639FAA27F00DB11DAA1F53
:10297000649F6627B00DA11D661F829F2227B00DA0
:10298000A11D621F739FB00DA11D621F839FA00D2B
:10299000611D221F749F3327A00D611D231F849F7B
:1029A000600D211D822F762F6A2F11249F575040D2
:1029B0008AF0E1F088234AF0EE0FFF1FBB1F661F6D
:1029C000771F881F91505040A9F79E3F510570F026
:1029D00014C05EC05F3FECF3983EDCF386957795BC
:1029E0006795B795F795E7959F5FC1F7FE2B880F21
:1029F000911D9695879597F9089597F99F6780E8B7
:102A000070E060E008959FEF80EC089500240A9440
:102A10001616170618060906089500240A941216B9
:102A20001306140605060895092E0394000C11F4EC
:102A3000882352F0BB0F40F4BF2B11F460FF04C099
:102A40006F5F7F4F8F4F9F4F089557FD9058440FF2
:102A5000551F59F05F3F71F04795880F97FB991FFD
:102A600061F09F3F79F087950895121613061406BA
:102A7000551FF2CF4695F1DF08C016161706180647
:102A8000991FF1CF86957105610508940895E89422
:102A9000BB2766277727CB0197F90895991B79E023
:102AA00004C0991F961708F0961B881F7A95C9F7DE
:102AB00080950895AA1BBB1B51E107C0AA1FBB1F2D
:102AC000A617B70710F0A61BB70B881F991F5A95BA
:102AD000A9F780959095BC01CD0108952F923F9262
:102AE0004F925F926F927F928F929F92AF92BF921E
:102AF000CF92DF92EF92FF920F931F93CF93DF93CA
:102B0000CDB7DEB7CA1BDB0B0FB6F894DEBF0FBE26
:102B1000CDBF09942A88398848885F846E847D8473
:102B20008C849B84AA84B984C884DF80EE80FD8075
:102B30000C811B81AA81B981CE0FD11D0FB6F894EB
:102B4000DEBF0FBECDBFED010895283008F027E0AD
:102B50003327DA01990F311D87FD916000966105D9
:102B6000710539F432602E5F3D9330E32A95E1F729
:102B700008959F3F30F080387105610509F03C5F92
:102B80003C5F3D93913008F08068911DDF93CF93B7
:102B90001F930F93FF92EF92192F987F9695E92F2D
:102BA00096959695E90FFF27E457FB4F9927332712
:102BB000EE24FF24A701E70105900894079428F468
:102BC000360FE71EF81E491F511D660F771F881F1D
:102BD000991F0694A1F70590079428F4E70EF81EB4
:102BE000491F561FC11D770F881F991F661F069426
:102BF000A1F70590079428F4F80E491F561FC71F28
:102C0000D11D880F991F661F771F0694A1F70590A5
:102C1000079420F4490F561FC71FD81F990F661F2E
:102C2000771F881F0694A9F784911095177041F0BB
:102C3000D695C79557954795F794E7941A95C1F798
:102C4000E2E3F4E0689415901591359165919591C2
:102C500005907FE27395E118F10A430B560BC90BFF
:102C6000D009C0F7E10CF11E431F561FC91FD01D2C
:102C70007EF4703311F48A95E6CFE894015030F079
:102C8000080F0AF40027021708F4202F2395022FBB
:102C90007A3328F079E37D932A95E9F710C07D9384
:102CA0002A9589F606949795679537951795179401
:102CB000E118F10A430B560BC90BD00998F0239584
:102CC0007E9173957A3308F070E37C932013B8F704
:102CD0007E9170617D9330F0839571E37D9370E315
:102CE0002A95E1F71124EF90FF900F911F91CF915A
:102CF000DF91992787FD90950895911196C28032B2
:102D000019F089508550D0F7089591110895815494
:102D10008A5108F4805E855A0895FC0105900616D4
:102D200021F00020D9F7C00108953197CF0108950F
:102D3000FC010590615070400110D8F78095909586
:102D40008E0F9F1F0895FC0161507040019001108B
:102D5000D8F7809590958E0F9F1F08950F931F931E
:102D6000CF93DF938C01EB01009731F4611571056E
:102D700019F420E030E038C081E090E06EE070E0CF
:102D80000E94F417FC019C01009771F180E8838395
:102D9000209771F0D387C28781E8838380915B019C
:102DA00090915C01892B21F4F0935C01E0935B012D
:102DB00001151105C9F01187008783818260838323
:102DC00080915D0190915E01892B71F4F0935E0119
:102DD000E0935D0180915F0190916001892B21F466
:102DE000F0936001E0935F01C901DF91CF911F91E2
:102DF0000F910895CF93DF93EC014B8140FF1AC0F0
:102E000046FF0AC04F7B4B838E819F8101969F8333
:102E10008E838A81282F2BC042FF13C0E881F9815D
:102E20008081282F332727FD30952115310529F47E
:102E300040624B832FEF3FEF1BC03196F983E8834D
:102E400011C0EA85FB85CE0109959C0197FF0AC058
:102E50009B812F5F3F4F11F080E201C080E1892B01
:102E60008B83E8CF8E819F8101969F838E8330E094
:102E7000C901DF91CF910895A0E0B0E0E2E4F7E16D
:102E80000C947E159E01275F3F4F8D819E816F813F
:102E90007885A9010E94C50C2096E2E00C949A1551
:102EA0000F931F93CF93DF938C01EB018B8181FFF5
:102EB0001BC082FF0DC02E813F818C819D81281710
:102EC000390764F4E881F9810193F983E88306C046
:102ED000E885F985802F0995892B31F48E819F81B2
:102EE00001969F838E8302C00FEF1FEFC801DF9111
:102EF000CF911F910F9108959C01FB01838180FF69
:102F000011C086FD0FC09FEF2F3F390759F0228374
:102F100080648F7D838386819781019797838683E1
:102F200030E002C02FEF3FEFC9010895FA01AA2750
:102F3000283051F1203181F1E8946F936E7F6E5FFC
:102F40007F4F8F4F9F4FAF4FB1E03ED0B4E03CD0AA
:102F5000670F781F891F9A1FA11D680F791F8A1F8D
:102F6000911DA11D6A0F711D811D911DA11D20D0F4
:102F700009F468943F912AE0269F11243019305DAE
:102F80003193DEF6CF010895462F4770405D41939F
:102F9000B3E00FD0C9F7F6CF462F4F70405D4A33EC
:102FA00018F0495D31FD4052419302D0A9F7EACFB4
:102FB000B4E0A6959795879577956795BA95C9F7E3
:102FC00000976105710508959B01AC010A2E0694D6
:102FD0005795479537952795BA95C9F7620F731F8F
:102FE000841F951FA01D08950F931F93CF93DF9308
:102FF000689F8001699F100D789F100D1124C801F2
:103000000E941018EC01009729F060E070E0A80120
:103010000E941819CE01DF91CF911F910F91089551
:10302000CF93DF93BC018230910510F462E070E031
:10303000A0916301B0916401ED01E0E0F0E040E0B7
:1030400050E021C0888199818617970769F48A81A9
:103050009B81309719F09383828304C0909364011D
:1030600080936301FE0134C06817790738F4411575
:10307000510519F08417950708F4AC01FE018A8107
:103080009B819C01E9012097E9F641155105A9F1C1
:10309000CA01861B970B049708F4BA01E0E0F0E040
:1030A0002AC08D919C91119784179507F9F46417A4
:1030B000750781F412968D919C911397309719F0B2
:1030C0009383828304C09093640180936301FD0124
:1030D00032964FC0CA01861B970BFD01E80FF91FFE
:1030E0006193719302978D939C9343C0FD018281FC
:1030F00093819C01D9011097A1F680916101909173
:103100006201892B41F48091440190914501909393
:103110006201809361014091460150914701411540
:10312000510541F44DB75EB7809142019091430142
:10313000481B590B2091610130916201241735071A
:10314000B0F4CA01821B930B8617970780F0AB017E
:103150004E5F5F4F8417950750F0420F531F5093F7
:10316000620140936101F9016193719302C0E0E053
:10317000F0E0CF01DF91CF910895CF93DF930097D7
:1031800009F450C0EC0122971B821A82A0916301BE
:10319000B0916401109709F140E050E0AC17BD0711
:1031A00008F1BB83AA83FE0121913191E20FF31F45
:1031B000AE17BF0779F48D919C911197280F391F95
:1031C0002E5F3F4F3983288312968D919C911397E0
:1031D0009B838A834115510571F4D0936401C09398
:1031E000630120C012968D919C911397AD010097B9
:1031F00011F0DC01D3CFFA01D383C2832191319145
:10320000E20FF31FCE17DF0769F488819981280F39
:10321000391F2E5F3F4FFA01318320838A819B81C2
:1032200093838283DF91CF9108959927882708950A
:10323000DC0101C06D9341505040E0F70895F894CF
:02324000FFCFBE
:103242004D696E733A2025752C20536563733A20BD
:1032520025752020200025750020202020202020F8
:103262002020202025753A257520200043430000A8
:103272000002000000008D0B00000000430101016C
:08328200323320006501000059
:00000001FF
